:020000040800F2
:10000000C8060020650100088B0100088D0100086A
:1000100000000000000000000000000000000000E0
:100020000000000000000000000000008F01000838
:10003000000000000000000091010008930100088A
:100040009501000895010008950100089501000838
:100050009501000895010008950100089501000828
:100060009501000895010008950100089501000818
:100070009501000895010008950100089501000808
:100080009501000800000000000000006511000854
:1000900000000000A51100080D13000895010008DC
:1000A0000000000095010008950100089501000876
:1000B0009501000800000000E9060008950100080D
:1000C00000F002F800F03EF80CA030C80838241800
:1000D0002D18A246671EAB4654465D46AC4201D180
:1000E00000F030F87E460F3E0FCCB6460126334274
:1000F00000D0FB1AA246AB46334318472416000033
:1001000044160000103A02D378C878C1FAD85207D2
:1001100001D330C830C101D504680C6070470000BD
:100120000023002400250026103A01D378C1FBD813
:10013000520700D330C100D50B6070471FB51FBDFB
:1001400010B510BD00F04BF81146FFF7F7FF01F0B6
:1001500063FA00F063F803B4FFF7F2FF03BC00F0AA
:1001600069F800000F4880F308880F480168090EFD
:100170000E4A914205D10E480E4901600E480F49C2
:1001800001600F4880470F480047FEE7FEE7FEE7A3
:10019000FEE7FEE7FEE700000B480C490C4A0D4B5A
:1001A00070470000C8060020040000001F00000087
:1001B0001810024001000000000001400000000093
:1001C00005110008C1000008C8000020C806002072
:1001D000C8020020C802002070477047704775466B
:1001E00000F024F8AE46050069465346C008C0003A
:1001F000854618B020B5FFF7CFFF60BC002749083F
:10020000B6460026C0C5C0C5C0C5C0C5C0C5C0C5AE
:10021000C0C5C0C5403D49008D46704710B5044675
:10022000C046C0462046FFF796FF10BD0048704705
:100230006400002001491820ABBEFEE72600020042
:1002400070470000F0B5012676028A1B08241025AD
:100250000423B14239D011DC202930D007DC012938
:1002600028D0042929D0082900D1C560F0BD402933
:1002700027D0FF390139F9D14360F0BD3F21490250
:10028000571A00268A4224D00ADCFF3AFF3A023A83
:100290001DD0012189028A42EFD186614360F0BD01
:1002A0000121C903791A0ED0012212049142F6D11C
:1002B0004560F0BD08498160F0BDC460F0BD0461D7
:1002C000F0BD0561F0BD4460F0BD4360F0BD43602A
:1002D000F0BD86614360F0BD0101010010B5012150
:1002E0004C06204600F058FE0021204600F054FE47
:1002F00010BD000010B5827A0123194691402A4AA8
:1003000014681C431460D3698B43D361037B002BB7
:1003100012D1D3688B43D360C38844881B04234322
:10032000847AE400A4182364838804881B0423438C
:10033000847AE400A4186364037B012B12D1D36890
:100340000B43D360038844881B042343847AE4006E
:10035000A41823648388C4881B042343847AE4009C
:10036000A4186364C37A002B06D053680B43536010
:100370000389002B04D006E053688B435360F7E7F2
:1003800053698B4353610389012B02D153690B439A
:100390005361407B012802D1D0690843D0611068C5
:1003A00040084000106010BD0066004010B50246D5
:1003B000002053690B4212D0FF2401340B1BA142D1
:1003C0005AD018DC082943D00ADC012936D002298A
:1003D00039D0042903D1D068082100F01DFB10BDDD
:1003E00010293AD020293DD04029F8D11069102198
:1003F00000F012FB10BD7F2109025C1A8B424AD02B
:100400000FDCFF3B013B3CD0FF3BFF3B023B3DD0C1
:10041000012189028B42EDD19069702100F0FCFA34
:1004200010BD0121C903611A21D001231B04994287
:10043000F6D15068102100F0EFFA10BD906818490D
:1004400000F0EAFA10BDD068032100F0E5FA10BD13
:10045000D068102100F0E0FA10BD1069032100F00F
:10046000DBFA10BD1069082100F0D6FA10BD506803
:10047000082100F0D1FA10BD9069012100F0CCFAFA
:1004800010BD9069022100F0C7FA10BD90690421E7
:1004900000F0C2FA10BD5068042100F0BDFA10BD92
:1004A0000101010080694006400F00017047002AE9
:1004B00003D042690A434261704742698A434261FC
:1004C0007047000010B5002203680224A3430360B4
:1004D0000368012423430360384B00E0521C446846
:1004E000E40701D19A42F9D14268D2073ED08C7913
:1004F0008022012C3CD0046894430460CC794022D3
:10050000012C39D00468944304600C7A2022012C19
:1005100036D00468944304604C7A1022012C33D006
:100520000468944304608C7A0822012C30D004685B
:1005300094430460CC7A0422012C2DD004689443A7
:1005400004608A78CC789207240622430C7924042C
:1005500022434C79098824052243491E0A43C2617B
:10056000016849084900016000211AE0002010BD1F
:10057000046814430460C1E7046814430460C4E7DA
:10058000046814430460C7E7046814430460CAE7BE
:10059000046814430460CDE7046814430460D0E7A2
:1005A000491C4268D20701D09942F9D14068C0077E
:1005B00001D0002010BD012010BD0000FFFFFF0092
:1005C00030B50B011B18FF3381331C6B04252C4005
:1005D0001472002C2AD01C6BE40854601C6B02259A
:1005E0002C4054725C6B2407240F94725C6B240AB9
:1005F000D4749C6BD4729C6B240A14739C6B240C73
:1006000054739C6B240E9473DC6BD473DC6B240AE0
:100610001474DC6B240C5474DB6B1B0E937420225B
:10062000002907D001691143016130BD1C6B640DC5
:100630001460D3E7C1681143C16030BD30B50246D4
:10064000002093685B010AD49068000101D5012065
:1006500005E09068C00001D5022000E004200428D5
:1006600038D003019A18FF3281321368DB07DB0FA1
:1006700013600B7A002B2ED014684D681C434B7A04
:10068000ED002B431C4314608B7A1B071B0F8B72EE
:1006900053681B091B01536053688C7A23435360D2
:1006A0008C7BCB7A240623434C7B0D7B24042D02C8
:1006B0002C43234393608C7CCB7B240623434C7CCC
:1006C000097C240409020C432343D36011680123ED
:1006D0001943116030BD13684C7A23430C886405BC
:1006E00023431360D0E70000F0B585B0BF4C022172
:1006F0002046FFF75BFE002803D002212046FFF7CB
:10070000A1FD6A4600212046FFF75AFFB84801269E
:1007100006706846C07C1025B64F0224B649B74A19
:10072000030000F027FF0D084993E0F1FAEEEDEC2D
:10073000EBEAE9E82C006846C17A027BB048002366
:100740000370B04B5A2902D90F21017011E04129E1
:1007500002D9072101700CE0282902D90321017078
:1007600007E00C2901D9067003E01978002900D0B0
:1007700006705A2A05D90178F0221143017005B09C
:10078000F0BD412A04D90178702211430170F6E7C7
:10079000282A04D90178302211430170EFE70C2A8E
:1007A00003D9017829430170E9E719780029E6D0D7
:1007B000017829430170E2E700206A46527B9307E3
:1007C0009B0F012B00D101201207920F012A00D1AB
:1007D00020433A788D4B944696078B4A1AD51F785A
:1007E000C607FF07F60FFF0FBE4213D0C60708D09B
:1007F0001678264316700E8801273F033E430E806D
:1008000008E01678FD273E4016700E8801273F034A
:10081000BE430E806646B60616D51E7807462740AC
:100820002640B74210D0840707D5147820263443D9
:1008300014700A882A430A8006E01478DF263440C0
:1008400014700A88AA430A80187098E76846C07A2C
:1008500083079B0F012B02D11378334313700307D7
:100860009D0F012D02D1157825431570840703D102
:1008700014786408640014709B0F03D11378FD246E
:10088000234013701378624C9D0703D00D882543D5
:100890000D8002E00D88A5430D808406A50F012D73
:1008A00002D104252B43137085090823012D02D1A1
:1008B00015781D431570A40F03D11478FB252C4027
:1008C0001470800903D11078F7242040107010783C
:1008D0000007800F03D00888184308804FE7088876
:1008E000984308804BE76846C07A387000F050FEA5
:1008F00000F070FE43E74FE045E03BE031E027E0E9
:100900001DE013E009E0FFE73C4A6846921CC07A0C
:100910000023511E00F0B2FE31E7384A6846921CAF
:10092000C07A0123511E00F0A9FE28E7334A684629
:10093000921CC07A0223511E00F0A0FE1FE72F4A2E
:100940006846921CC07A0323511E00F097FE16E7FA
:100950002A4A6846921CC07A0423511E00F08EFE7B
:100960000DE7264A6846921CC07A0523511E00F006
:1009700085FE04E7214A6846921CC07A0623511E70
:1009800000F07CFEFBE61D4A6846921CC07A0723F5
:10099000511E00F073FEF2E66846C07A83079B0F93
:1009A000012B03D1137840242343137003079C0FBA
:1009B000012C03D1147880252C431470800703D1B7
:1009C0001078BF2420401070980F03D11078400693
:1009D000400E1070107882090E4803D00A88024336
:1009E0000A80CCE60A8882430A80C8E60064004098
:1009F0000800002001000020020000201F0000204D
:100A00000B00002007000020000000200A0000204A
:100A10000040000000010000024600200A4200D011
:100A200001207047F0B500220325012393400C6894
:100A30001C409C422AD10C79012C01D0022C12D1ED
:100A4000876854002E46A640B74387604E79A6407B
:100A500084682643866084889C43848084888B795C
:100A600093401C438480066853002C469C40A64358
:100A700006600E7907689E403E430660C668A6433E
:100A8000C660CC799C40C3681C43C460521C102AC9
:100A9000CBD3F0BD10B54B07DB0E9A40C9088900D7
:100AA0000818016A0F249C40A1430162016A1143A6
:100AB000016210BD01857047816170470449016082
:100AC00000210171012242718171C17170470000E2
:100AD000FFFF00000249014808607047CCCC0000CD
:100AE000003000400249014808607047AAAA00008F
:100AF000003000400149486070470000003000406D
:100B000001498860704700000030004001490860DA
:100B10007047000000300040F8B5734C2046FFF7E6
:100B2000DDFB724900258D710126CE710D724D726B
:100B30008D72CD728D70CD700720087106204871BE
:100B400008802046FFF7BEFC012202212046FFF765
:100B5000AEFC674CA572E57226730320000220806C
:100B60006580FF277F01A780E58025816673204689
:100B7000FFF7C0FBA672E5722673052000022080F5
:100B80006580A780E580258166732046FFF7B2FB6C
:100B90000220A072E5722673800220806580A78003
:100BA000E580258166732046FFF7A4FB0320A07231
:100BB000E57226732B20C00120806580A780E58028
:100BC000258166732046FFF795FB0420A072E5722D
:100BD00026730520400220806580A780E58025815E
:100BE00066732046FFF786FB0520A072E572267328
:100BF0005120400120806580A780E58025816673B3
:100C00002046FFF777FB0620A072E57226732920A5
:100C1000800120806580A780E5802581667320465D
:100C2000FFF768FB0720A072E5722673532040018E
:100C300020806580A780E580258166732046FFF7C8
:100C400059FB0820A072E5722673032080022080E1
:100C50006580A780E580258166732046FFF74AFB03
:100C60000920A072E5722673612040012080658012
:100C7000A780E580258166732046FFF73BFB0A20AD
:100C8000A072E57226733120800120806580A780E4
:100C9000E580258166732046FFF72CFB0B20A072B0
:100CA000E57226736320400120806580A780E5807F
:100CB000258166732046FFF71DFB0C20A072E572AC
:100CC00026732B20800120806580A780E580258108
:100CD00066732046FFF70EFB06481E210170457023
:100CE000867000F015F9F8BD00640040480000204F
:100CF000540000201C000020F8B52B48FFF7DEFE52
:100D0000294C00252571FF20206065710126E671C0
:100D100009202146C006FFF785FE26716571E57141
:100D200007200002206009202146C006FFF77AFE56
:100D3000D320206021461D48FFF774FEA671F00302
:100D4000206009202146C006FFF76CFE02272771AC
:100D50000320C00220606571E67109202146C006AB
:100D6000FFF760FE092004220B21C006FFF792FE68
:100D7000092004220C21C006FFF78CFE2771A67102
:100D8000282020606571E57121460848FFF74AFE7A
:100D9000002203210548FFF77DFE002205210348BC
:100DA000FFF778FEF8BD00001400002000040048A2
:100DB00010B5FFF78FFE0848FFF7A8FE0320FFF7E6
:100DC00099FE7D20C000FFF79BFE0448C168002902
:100DD000FCD1FFF787FE10BD5555000000300040E4
:100DE00070B501214C04204600F0BAF801218D04B1
:100DF000284600F0B5F80121022000F0BFF80121DB
:100E0000080200F0BBF80121480600F0B7F8012104
:100E1000080300F0CFF80121204600F0CBF80121B3
:100E2000284600F0C7F870BD10B586B003208003D7
:100E30006A4690800F20000210810020508190812E
:100E400001214902D181102111825082FF200530F9
:100E5000D080074C01A9204600F0CEF801212046A1
:100E600000F0B6F8A115204600F0F0F806B010BD6D
:100E70000030014070B521491F4808811F482049B2
:100E80002038C16281890124214381810188214365
:100E900001801C48EF2202811A4864212038C16277
:100EA0008189214381810188214301801648028183
:100EB0007D21154849012038C16281892143818102
:100EC000018821430180114D1320287002266E7085
:100ED000AC70284600F01CF8152028706E70AC70BD
:100EE000284600F015F8162028706C70AC70284663
:100EF00000F00EF870BD00005F09000020200040E7
:100F00005A1E000020440140204801401C000020DF
:100F100030B5827801240178002A16D08B080E4A59
:100F20009B009A1813688907C90EFF258D40AB43B3
:100F30004578AD072D0E8D401D4315600078C00625
:100F4000C00E84400548046030BDC806C00E844011
:100F500002488030046030BD00E400E000E100E0C1
:100F6000054A002903D05169014351617047516915
:100F7000814351617047000000100240054A00297A
:100F800003D0D1690143D1617047D1698143D161F7
:100F90007047000000100240054A002903D0116983
:100FA000014311617047116981431161704700006D
:100FB00000100240054A002903D091690143916164
:100FC00070479169814391617047000000100240B1
:100FD0004022002903D00188114301807047018815
:100FE0009143018070470246002012890A4200D0D6
:100FF000012070478181704730B50388C12292017A
:1010000013400A88CC890D892243CC882C43224383
:101010004C8922438C8922431A4302808288094BDF
:101020001A408B88134383800A8A02820288042331
:101030009A43498811430180818B034A114081837F
:1010400030BD0000FFF00000FFF70000064A9142AB
:1010500005D00188FF2201321143018070470188C9
:101060001140018070470000FFFE00003CB50023E6
:101070000193009321480168012424042143016065
:10108000610005252D0302680A400092019A521C56
:101090000192009A002A02D1019AAA42F3D1016872
:1010A000890302D50121009100E0009300990129F4
:1010B00023D1134A112111604168416041684160A8
:1010C00041687F22D20391434160416821434160DE
:1010D0000168012212061143016001688901FCD5F3
:1010E00041688908890041604168022211434160DA
:1010F00041680907890F0229FAD13CBD001002405E
:101100000020024010B5144801680122114301601B
:101110004168124A114041600168114A1140016062
:101120000168012292049143016041683F22120448
:1011300091434160C16A09090901C162016BFF2243
:10114000543291430163416B4908490041630021D6
:101150008160FFF78BFF10BD001002400CB8FFF854
:10116000FFFFF6FE0B48018A4908490001820A493F
:101170000122087850400870084A0023117800299D
:1011800006D10749002802D0FF20087000E00B704C
:101190001370704700200040070000200800002066
:1011A0000B000020F8B55248018A49084900018225
:1011B000504D2878401CC0B22870082801D100206A
:1011C000287000204C4F29784C4C01263A5C8A420A
:1011D00005D83246238882409343238004E0324678
:1011E000238882401A432280401CC0B20F28EDD3CE
:1011F000434E3078884204D880214248FFF75AFC99
:1012000003E080213F48FFF757FC70782978884237
:1012100004D840213B48FFF74DFC03E0402139480A
:10122000FFF74AFCB0782978884204D81021354865
:10123000FFF740FC03E010213248FFF73DFCF07857
:101240002A78012109278902FF06904203D83846EF
:10125000FFF730FC02E03846FFF72EFC30792978A2
:10126000884204D801212748FFF724FC03E001212C
:101270002448FFF721FC70792978884204D802219C
:101280002048FFF717FC03E002211E48FFF714FC7B
:10129000B0792A78FF210131904203D83846FFF710
:1012A00009FC02E03846FFF707FCF0792A780121B3
:1012B0004902904203D83846FFF7FCFB02E038466B
:1012C000FFF7FAFB2188104C2046FFF793FE8021A0
:1012D0002046FFF788FE0128F9D00124E4032146C7
:1012E0003846FFF7E9FB21463846FFF7E3FBF8BD38
:1012F00000440140090000202400002004000020D8
:101300000C0000200004004800300140F8B58C4873
:10131000018A490849000182FFF7E4FB00208A4C5A
:10132000884A2688012529468140314205D0115C32
:10133000082907D2491C115404E0115C002901D08E
:10134000491E1154401CC0B20F28ECD300207F4925
:101350007F4B0A7829468140114205D0195C082943
:1013600007D2491C195404E0195C002901D0491E18
:101370001954401CC0B20828ECD30920C006008ACA
:10138000C043C1B2734A08461378984311704707A7
:10139000714A04237149002F0FDA17787F070CD5A3
:1013A0000F785F400F707F0703D5DF013E43268033
:1013B00003E001277F02BE432680860710D51678FA
:1013C000B6070DD50E7802277E400E70B707644E23
:1013D00003D527883743278002E02788B743278033
:1013E000C6070FD01678F6070CD00E786E400E7038
:1013F000F7075C4E03D027883743278002E0278811
:10140000B7432780060710D5167836070DD50E7816
:1014100008277E400E70360703D526882E43268087
:1014200003E025886D086D002580C6061025002E76
:1014300010DA1678F6060DD50E786E400E70F606A8
:1014400004D5268820273E43268003E026882027CF
:10145000BE43268046060FD5167876060CD50E7844
:1014600040277E400E70760603D526881E432680D0
:1014700002E026889E43268086060FD51678B6069B
:101480000CD50E7820277E400E70B60603D5268830
:101490002E43268002E02688AE432680000611D522
:1014A000107800060ED5087880225040087000069B
:1014B00004D5208802221043208003E020880222E5
:1014C00090432080284A1078401CC0B21070042835
:1014D00035D100261670C0220878C10700D0C1227D
:1014E000010600D51A43410600D52A431F4FFA7260
:1014F000F021420700D5F121C20600D51943397306
:10150000C021820700D5C121820600D519430007FA
:1015100000D5294379733E72282038600320B872C1
:10152000134D12492846FFF789F82846FEF7BAFFFF
:10153000002804D020881521890148402080F8BD6A
:101540000048014024000020020000200B00002081
:101550000C000020060000200100002000000020F8
:1015600000100000002000002200002034000020B5
:101570000064004030B47446641E2578641CAB429D
:1015800000D21D46635D5B00E31830BC18470000C5
:1015900010B50E48C168C907FCD1C1682022890670
:1015A000002900DAC2600169022319430161084978
:1015B00041610169402421430161C168C907FCD12F
:1015C000C26001699943016110BD00000020024022
:1015D000007800080D48C168C907FCD1C168202205
:1015E0008906002900DAC2600169012319430161FB
:1015F0000749084B49781980C1688906FCD5C26043
:10160000016949084900016170470000002002405B
:101610000000002000780008134C0020607014487F
:10162000124941601349416013480068411C00D0D1
:101630006070FF206070FFF7BBFBFFF7D1FBFFF787
:101640005BFBFFF7F1FBFFF767FAFFF713FC60782E
:10165000000707D520780821084320706088012101
:1016600008436080FEE7000000000020230167457A
:1016700000200240AB89EFCD0078000830B5850727
:10168000AD0F01249C40012D02D10B7823430B7038
:1016900003079D0F012D02D1157825431570800792
:1016A00002D10878A0430870980F02D11078A043A7
:1016B00010700878174B0407174803D004881C43A0
:1016C000048002E004889C430480097840230909CF
:1016D000002903D001881943018002E00188994361
:1016E000018011780B070D4903D003880B43038059
:1016F00002E003888B43038011780A098021002AC5
:1017000003D002880A43028030BD02888A430280E7
:1017100030BD0000000400000200002000080000AE
:101720004017000800000020240000000401000809
:101730006417000824000020A4060000200100080F
:101740000000000000000000000000000000000099
:101750000000000000000000000000000000000089
:041760000000000085
:040000050800016589
:00000001FF
